:020000040800F2
:1000000000280020E5070008C1070008C307000812
:10001000C5070008C7070008C9070008000000005E
:10002000000000000000000000000000CB070008F6
:10003000CD07000800000000CF070008D107000826
:100040002D0800082D0800082D0800082D080008BC
:100050002D0800082D0800082D0800082D080008AC
:100060002D0800082D0800082D0800082D0800089C
:100070002D0800082D0800082D0800082D0800088C
:100080002D0800082D0800082D0800082D0800087C
:100090002D0800082D0800082D0800082D0800086C
:1000A0002D0800082D0800082D0800082D0800085C
:1000B000D50700082D080008000000002D080008E2
:1000C0002D08000800000000000000002D080008B6
:1000D000000000002D0800082D08000800000000A6
:1000E0002D0800082D0800082D0800080000000059
:1000F0000000000000000000000000000000000000
:0C01000000000000000000005FF808F1A3
:10010C0010B5054C237833B9044B13B10448AFF345
:10011C0000800123237010BD180000200000000097
:10012C003014000808B5034B1BB103490348AFF367
:10013C00008008BD000000001C00002030140008E6
:10014C0010B50446E0074CBF002201224FF4807129
:10015C00224800F0E5FCA1074CBF002201224FF41D
:10016C0000711E4800F0DCFC62074CBF002201222B
:10017C004FF48061194800F0D3FC23074CBF0022D8
:10018C00012216484FF4006100F0CAFCE0064CBF97
:10019C00002201224FF48051104800F0C1FCA1064E
:1001AC004CBF002201224FF400510C4800F0B8FC67
:1001BC0062064CBF002201224FF48041074800F038
:1001CC00AFFC230648BF0022BDE8104058BF0122F7
:1001DC004FF40041014800F0A3BC00BF000C0140EB
:1001EC0008B5072800F29581DFE810F008003C0004
:1001FC006D009E00CF00000131016201002204213C
:10020C00C44800F08DFC01220821C24800F088FC93
:10021C0001224FF48061BF4800F082FC01224FF4B0
:10022C000061BC4800F07CFC01224FF48051B948BD
:10023C0000F076FC01224FF40051B64800F070FC3F
:10024C0001224FF48041B34800F06AFCB14801220E
:10025C004FF4004100F064FCAF4B1878BDE8084047
:10026C00FFF76EBF01220421AA4800F059FC0022BE
:10027C000821A84800F054FC01224FF48061A548E5
:10028C0000F04EFC01224FF40061A24800F048FC43
:10029C0001224FF480519F4800F042FC01224FF4A0
:1002AC0000519C4800F03CFC01224FF480419948DD
:1002BC0000F036FC974801224FF4004100F030FC6E
:1002CC00954B5878CAE701220421924800F028FC8B
:1002DC00012208218F4800F023FC00224FF480619A
:1002EC008C4800F01DFC01224FF40061894800F09D
:1002FC0017FC01224FF48051864800F011FC0122BA
:10030C004FF40051834800F00BFC01224FF4804164
:10031C00804800F005FC7F4801224FF4004100F0BA
:10032C00FFFB7D4B987899E701220421794800F076
:10033C00F7FB01220821774800F0F2FB01224FF471
:10034C008061744800F0ECFB00224FF400617148AE
:10035C0000F0E6FB01224FF480516E4800F0E0FB08
:10036C0001224FF400516B4800F0DAFB01224FF4EC
:10037C008041684800F0D4FB664801224FF40041EC
:10038C0000F0CEFB644BD87868E701220421614869
:10039C0000F0C6FB012208215E4800F0C1FB0122DF
:1003AC004FF480615B4800F0BBFB01224FF400610D
:1003BC00584800F0B5FB00224FF48051554800F02E
:1003CC00AFFB01224FF40051524800F0A9FB01226F
:1003DC004FF480414F4800F0A3FB4E4801224FF4EC
:1003EC00004100F09DFB4C4B187937E701220421AA
:1003FC00484800F095FB01220821464800F090FB8C
:10040C0001224FF48061434800F08AFB01224FF433
:10041C000061404800F084FB01224FF480513D48BC
:10042C0000F07EFB00224FF400513A4800F078FBBC
:10043C0001224FF48041374800F072FB354801220D
:10044C004FF4004100F06CFB334B587906E7012266
:10045C000421304800F064FB012208212D4800F0F3
:10046C005FFB01224FF480612A4800F059FB012206
:10047C004FF40061274800F053FB01224FF48051E8
:10048C00244800F04DFB01224FF40051214800F0AC
:10049C0047FB00224FF480411E4800F041FB1D48F1
:1004AC0001224FF4004100F03BFB1B4B9879D5E641
:1004BC0001220421174800F033FB012208211548C2
:1004CC0000F02EFB01224FF48061124800F028FB53
:1004DC0001224FF400610F4800F022FB01224FF47F
:1004EC0080510C4800F01CFB01224FF400510948CC
:1004FC0000F016FB01224FF48041064800F010FB7F
:10050C00044800224FF4004100F00AFB024BD8795A
:10051C00A4E608BD0008014004000020084B5978EF
:10052C001A78197099785970D97899701979D97095
:10053C005979197199795971D979DA719971704719
:10054C0004000020054B00221B6890FBF3F0044BC9
:10055C0043F82100034B43F8212070470000002092
:10056C003C00002034000020064B1A68002AC4BF4F
:10057C0002F1FF321A605A68002AC4BF02F1FF323E
:10058C005A6070473C00002000B591B02422002135
:10059C0007A800F01BFF1422002101A800F016FF91
:1005AC00022301210693102306A8CDE90A1300F0BB
:1005BC00BDFA014608B172B6FEE70F23CDE9030080
:1005CC00CDE90130059001A800F072FC08B172B6BB
:1005DC00FEE711B05DF804FB00B589B000F046F9F8
:1005EC00FFF7D2FF102200210DEB020000F0EEFE0F
:1005FC00484B4FF6FC719A69474842F004029A61E5
:10060C009A69002502F004020092009A9A69022469
:10061C0042F008029A619B69002203F008030193DF
:10062C00019B00F07DFA00224FF67F713B4800F0F1
:10063C0077FA01264FF6FC73374804A9CDE9043646
:10064C00CDE9065400F09AF94FF67F73334804A9AC
:10065C00CDE90436CDE9065400F090F91022294674
:10066C000DEB020000F0B2FE41F63F734FF08042FA
:10067C002B4CCDE90255C4E9002309232046C4E9DB
:10068C000335A560A56100F0A5FD08B172B6FEE7C3
:10069C004FF48053204604A9049300F0D1FD08B117
:1006AC0072B6FEE7CDE9020002A9204600F062FE18
:1006BC00054608B172B6FEE7204600F095FC2946C7
:1006CC000A20FFF73FFF31466420FFF73BFF154C34
:1006DC00154D2368012B05D1FFF720FF0A200021BF
:1006EC00FFF730FF6368012BF3D12B68032BC4BFDA
:1006FC0000232B600D4B1A68082AC4BF00221A6015
:10070C001868421C1A60FFF76BFD01216420FFF78B
:10071C0019FFDEE70010024000080140000C014008
:10072C004C00002034000020480000204400002031
:10073C00FFF71ABF0E4B82B09A6942F001029A6120
:10074C009A6902F001020092009ADA6942F0805232
:10075C00DA61DB69074A03F080530193019B53680C
:10076C0023F0E06343F08063536002B0704700BF36
:10077C000010024000000140036807B5B3F1804F40
:10078C0015D103F50433DA691C2042F00102DA6159
:10079C000022DB69114603F001030193019B00F079
:1007AC009BF81C2003B05DF804EB00F0C5B803B057
:1007BC005DF804FBFEE7FEE7FEE7FEE7FEE77047A9
:1007CC007047704700F064B8014800F037BC00BFB8
:1007DC004C00002070470000FFF7FCFF0B480C4951
:1007EC000C4A002302E0D458C4500433C4188C4281
:1007FC00F9D3094A094C002301E013600432A242E8
:10080C00FBD300F0EBFDFFF7E7FE70470000002084
:10081C001800002074140008180000209800002014
:10082C00FEE7000038B50E4B05461A784FF47A7384
:10083C00B3FBF2F30B4A1068B0FBF3F000F08AF84C
:10084C00044658B90F2D09D8024629464FF0FF30FF
:10085C0000F042F82046044B1D6038BD0120FCE737
:10086C00100000200C00002014000020074A08B5DE
:10087C001368032043F01003136000F01BF80F20E3
:10088C00FFF7D0FFFFF756FF002008BD0020024005
:10089C00034A044B11681B780B441360704700BF6C
:1008AC009400002010000020014B1868704700BF16
:1008BC009400002007490302CA6803F4E06322F4A1
:1008CC00E0621204120C134343F0BF6343F4003391
:1008DC00CB60704700ED00E0154B30B5DC68C4F31D
:1008EC000224C4F10703251D042B28BF0423062D65
:1008FC004FF0FF3594BF0024033C05FA03F321EAC3
:10090C000303A54022EA0502A340002843EA0203A0
:10091C00ACBF00F16040074A4FEA0313DBB2ABBF38
:10092C0000F5614000F00F0080F80033135430BD27
:10093C0000ED00E014ED00E0002807DB0123410985
:10094C00034A00F01F00834042F82130704700BF7B
:10095C0000E100E00138B0F1807F0BD24FF0E023D2
:10096C00F021054A586182F8231000200722986173
:10097C001A6170470120704700ED00E02DE9F74F38
:10098C0000221646DFF87CC15F4BDFF880E1DFF810
:10099C0080810D6835FA06F402D103B0BDE8F08F02
:1009AC000127B74005EA070437EA050575D14D68FC
:1009BC00032D06D8013D022D7ED8DFE805F08F947B
:1009CC009A00122D00F0928069D8112D00F08880C9
:1009DC00FF2C98BF81464FF00F0B88BF00F1040924
:1009EC004FEA8605D9F8007088BF203D0BFA05FA4E
:1009FC0027EA0A0702FA05F52F43C9F80070D1F867
:100A0C00049019F0805F48D0DCF8185026F00307EA
:100A1C0045F00105CCF81850DCF8185007F1804768
:100A2C0005F00105019507F5803706F0030A019DD5
:100A3C004FEA8A0ABD680BFA0AFB25EA0B0B354D07
:100A4C00A8425AD005F58065A84258D005F58065B6
:100A5C00A84214BF0325022505FA0AF545EA0B0541
:100A6C00BD609D6819F4801F14BF2543A5439D608C
:100A7C00DD6819F4001F14BF2543A543DD605D68D4
:100A8C0019F4003F14BF2543A5435D601D6819F49C
:100A9C00803F14BF2543A5431D60013679E7DFF87D
:100AAC0078904D4508D011D8A9F580194D4503D043
:100ABC00754501D045458BD18A68E2B1012A08BF42
:100ACC0007614FF0080218BF476181E7DFF84C90CF
:100ADC004D45F1D009F580394D45ECE7CA6877E70B
:100AEC00CA68043274E7CA68083271E7CA680C3203
:100AFC006EE700226CE704226AE70025ACE70125CB
:100B0C00AAE700BF001002400004014000002110C1
:100B1C0000001110000801400000221000003110EC
:100B2C000AB1016170470904FBE700002DE9F341AC
:100B3C00054638B30368DB0710D42B689F075ED4D7
:100B4C002B68190700F195802B685A0700F1C180BA
:100B5C00EB69002B40F02C81002029E0904C63685D
:100B6C0003F00C03042B07D0636803F00C03082B71
:100B7C000AD16368DE0307D523689C03DDD56B6857
:100B8C00002BDAD1012013E06B68B3F5803F12D152
:100B9C00236843F480332360FFF786FE0646236800
:100BAC009803CAD4FFF780FE801B6428F7D9032072
:100BBC0002B0BDE8F0819BB9236823F48033236035
:100BCC00236823F480232360FFF76EFE0646236818
:100BDC009903B2D5FFF768FE801B6428F7D9E6E7C6
:100BEC00B3F5A02F236803D143F480232360CFE710
:100BFC0023F480332360236823F48023CBE7684CF1
:100C0C00636813F00C0F07D0636803F00C03082B18
:100C1C0010D16368DA030DD423689B0702D52B69C6
:100C2C00012BAFD123686A6923F0F80343EAC203AE
:100C3C00236085E72A695B4B6AB101221A60FFF7D2
:100C4C0033FE064623689F07ECD4FFF72DFE801B6E
:100C5C000228F7D9ABE71A60FFF726FE0646236891
:100C6C0098077FF56DAFFFF71FFE801B0228F6D9A2
:100C7C009DE7AA694A4E4B4BE2B10122C3F880248E
:100C8C00FFF712FE0446736A9B070DD54FF4FA5218
:100C9C00454B1B68B3FBF2F3019300BF019B5A1E3B
:100CAC000192002BF9D14FE7FFF7FEFD001B022844
:100CBC00E9D97CE7C3F88024FFF7F6FD0446736A94
:100CCC009F077FF541AFFFF7EFFD001B0228F6D918
:100CDC006DE7334CE369D80024D40127E36943F072
:100CEC008053E361E36903F080530093009B2F4E24
:100CFC003368D90518D5EB68012B26D1236A43F04C
:100D0C0001032362FFF7D0FD41F288380646236ABF
:100D1C009B073FD5002F3FF41BAFE36923F08053B3
:100D2C00E36115E70027E2E7336843F4807333602F
:100D3C00FFF7BAFD80463368DA05DCD4FFF7B4FD63
:100D4C00A0EB08006428F6D931E7ABB9236A41F26D
:100D5C00883823F001032362236A23F004032362FF
:100D6C00FFF7A2FD0646236A9807D3D5FFF79CFD33
:100D7C00801B4045F7D91AE7052B236A03D143F0B2
:100D8C0004032362BAE723F001032362236A23F0EE
:100D9C000403B6E7FFF788FD801B4045B7D906E78B
:100DAC0000100240000042420C0000200070004085
:100DBC002A4C626802F00C02082A3ED00022022B58
:100DCC00274B1A662CD1FFF76FFD06462368990155
:100DDC0020D42B6AB3F5803F05D16268A96822F450
:100DEC0000320A436260696A62680B4322F474122F
:100DFC001343012263601A4B1A66FFF755FD054633
:100E0C0023689A013FF5A8AEFFF74EFD401B022860
:100E1C00F6D9CCE6FFF748FD801B0228D6D9C6E6EA
:100E2C00FFF742FD054623689B017FF595AEFFF762
:100E3C003BFD401B0228F6D9B9E6012B3FF4A2AECC
:100E4C0060682B6A00F480329A427FF49BAE6B6A26
:100E5C0000F47010C01A18BF0120A9E6001002405F
:100E6C00000042420D4A536803F00C01082912D1CC
:100E7C000B48C3F38341DB03405C09D55368094A33
:100E8C00C3F340435043084AD35CB0FBF3F07047C4
:100E9C00064B584370470348704700BF0010024090
:100EAC005A14000800127A005814000800093D007A
:100EBC002DE9F0410D46044610B90120BDE8F08142
:100ECC00444A136803F007038B4228D321688E072A
:100EDC0030D4CA0743D43F4A136803F00703AB422C
:100EEC0065D822683C4D12F0040F6CD1130706D55F
:100EFC006B68226923F4605343EAC2036B60FFF70B
:100F0C00B1FF6B68354AC3F30313D35CD840344B41
:100F1C001860344B1868FFF785FC0020CEE7136887
:100F2C0023F007030B431360136803F007038B4292
:100F3C00C3D1CBE7284B11F0040F1EBF5A6842F403
:100F4C00E0625A60080742BF5A6842F460525A6025
:100F5C005A68A06822F0F00202435A60B9E762684E
:100F6C001D4E012A33681AD113F4003FA5D07368C3
:100F7C0041F2883823F0030313437360FFF794FCAA
:100F8C0007467368626803F00C03B3EB820FA2D0C0
:100F9C00FFF78AFCC01B4045F3D903208EE7022AD9
:100FAC0002D113F0007FE1E713F0020FDEE71368C4
:100FBC0023F007032B431360136803F00703AB42C2
:100FCC007FF47BAF8DE76B68E16823F4E0630B4340
:100FDC006B608BE7002002400010024048140008B0
:100FEC000C0000201400002090F83D30012B1CD187
:100FFC00022380F83D300368DA6842F00102DA60BF
:10100C000B4A934206D0B3F1804F03D0A2F5943231
:10101C00934204D19A6802F00702062A03D01A6898
:10102C0042F001021A60002070470120704700BF97
:10103C00002C01407047704770477047036870B5CB
:10104C00DD681E690446B1070DD5AA070BD56FF0F4
:10105C0002021A61012202779B699B0769D0FFF794
:10106C00EAFF00232377710710D56A070ED56FF0BE
:10107C000402236820461A61022222779B6913F42A
:10108C00407F5CD0FFF7D7FF0023237733070FD5C2
:10109C0028070DD56FF00802236820461A61042238
:1010AC002277DB69990750D0FFF7C5FF0023237720
:1010BC00F20610D5EB060ED56FF010022368204611
:1010CC001A6108222277DB6913F4407F43D0FFF7C3
:1010DC00B2FF00232377F00708D5E90706D56FF098
:1010EC000102236820461A61FFF722FB320608D55D
:1010FC002B0606D56FF08002236820461A6100F09B
:10110C0064F9700608D5690606D56FF040022368AD
:10111C0020461A61FFF791FFB20622D5AB0620D507
:10112C006FF0200223682046BDE870401A6100F081
:10113C004BB9FFF77FFF2046FFF77EFF91E7FFF7E4
:10114C0079FF2046FFF778FF9EE7FFF773FF2046F5
:10115C00FFF772FFAAE7FFF76DFF2046FFF76CFF62
:10116C00B7E770BD194A10B59042036805D0B0F1CD
:10117C00804F02D0164CA04210D14C6823F0700363
:10118C00904243EA040305D0B0F1804F02D0104ADC
:10119C00904203D1CA6823F4407313434A6923F085
:1011AC008003134303608B68C3620B688362074B35
:1011BC00984204BF0B690363012343610369DB0796
:1011CC0042BF036923F00103036110BD002C0140F1
:1011DC000004004010B5044630B390F83D3003F0E5
:1011EC00FF021BB980F83C20FFF7C6FA02232068E7
:1011FC0084F83D30211DFFF7B5FF0123002084F852
:10120C00463084F83E3084F83F3084F8403084F81F
:10121C00413084F8423084F8433084F8443084F808
:10122C00453084F83D3010BD0120FCE710B58468D2
:10123C000A4324F47F4442EA03222243826010BD15
:10124C0038B590F83C300446012B4FF0020000F00A
:10125C008E80012284F83D00206884F83C2083684D
:10126C0023F47F4323F0770383600B68602B4FD00C
:10127C0032D8402B64D016D8202B0DD00AD833F09E
:10128C00100109D0012384F83D30002384F83C3050
:10129C00104638BD302BF5D1826822F07002134312
:1012AC0043F0070328E0502BECD14A68CD68016A63
:1012BC00036A21F00A0123F00103036283690A43E4
:1012CC0023F0F00343EA051383610262836823F081
:1012DC00700343F057030FE0B3F5805F0DD0B3F507
:1012EC00005F0CD0702BCDD1CB68D1E90121FFF779
:1012FC009DFF836843F0770383600022C2E7CB68CD
:10130C00D1E90121FFF792FF836843F48043F3E7AF
:10131C00036A026A4D6822F01002C968026282698F
:10132C0023F0A00322F4704243EA051342EA01328F
:10133C0082610362836823F0700343F06703DBE789
:10134C004A68CD68016A036A21F00A0123F001039F
:10135C00036283690A4323F0F00343EA05138361B4
:10136C000262836823F0700343F04703C4E702462C
:10137C008EE7000030B590F83C200346012A4FF070
:10138C0002001ED01A6883F83D0054680D6824F0E2
:10139C0070042C43906854600A4CA24206D0B2F1FF
:1013AC00804F03D0A4F59434A24204D1496820F0B4
:1013BC008000014391600122002083F83D2083F8D6
:1013CC003C0030BD002C014070477047034602447E
:1013DC00934200D1704703F8011BF9E770B5002662
:1013EC000C4D0D4C641BA410A64209D100F01AF848
:1013FC0000260A4D0A4C641BA410A64205D170BDF0
:10140C0055F8043B98470136EEE755F8043B9847EE
:10141C000136F2E76C1400086C1400086C14000818
:10142C0070140008F8B500BFF8BC08BC9E467047A5
:0C143C00F8B500BFF8BC08BC9E46704725
:10144800000000000000000001020304060708096C
:10145800010202030405060708090A0B0C0D0E0F0A
:041468001010000060
:04146C003101000842
:041470000D01000862
:101474000A000000010203040506070800127A00AE
:0814840001000000100000004F
:04000005080007E503
:00000001FF
